{
  "abi": [
    {
      "inputs": [],
      "stateMutability": "nonpayable",
      "type": "constructor"
    },
    {
      "inputs": [
        {
          "components": [
            {
              "internalType": "uint256",
              "name": "actionType",
              "type": "uint256"
            },
            {
              "internalType": "bytes",
              "name": "rawData",
              "type": "bytes"
            }
          ],
          "internalType": "struct CallBackData",
          "name": "cbd",
          "type": "tuple"
        }
      ],
      "name": "execute",
      "outputs": [],
      "stateMutability": "nonpayable",
      "type": "function"
    },
    {
      "inputs": [
        {
          "internalType": "address",
          "name": "_sender",
          "type": "address"
        },
        {
          "internalType": "uint256",
          "name": "_amount0",
          "type": "uint256"
        },
        {
          "internalType": "uint256",
          "name": "_amount1",
          "type": "uint256"
        },
        {
          "internalType": "bytes",
          "name": "_data",
          "type": "bytes"
        }
      ],
      "name": "uniswapV2Call",
      "outputs": [],
      "stateMutability": "nonpayable",
      "type": "function"
    },
    {
      "inputs": [
        {
          "internalType": "int256",
          "name": "amount0Delta",
          "type": "int256"
        },
        {
          "internalType": "int256",
          "name": "amount1Delta",
          "type": "int256"
        },
        {
          "internalType": "bytes",
          "name": "_data",
          "type": "bytes"
        }
      ],
      "name": "uniswapV3SwapCallback",
      "outputs": [],
      "stateMutability": "nonpayable",
      "type": "function"
    },
    {
      "stateMutability": "payable",
      "type": "receive"
    }
  ],
  "bytecode": {
    "object": "0x60a060405234801561001057600080fd5b5033608052608051610a09610030600039600061014c0152610a096000f3fe6080604052600436106100385760003560e01c806310d1e85c146100445780638b78211314610066578063fa461e331461008657600080fd5b3661003f57005b600080fd5b34801561005057600080fd5b5061006461005f366004610506565b6100a6565b005b34801561007257600080fd5b5061006461008136600461068f565b610141565b34801561009257600080fd5b506100646100a13660046106cc565b6101ee565b600080806100b68486018661071f565b9250925092506100c583610141565b60405163a9059cbb60e01b8152336004820152602481018290526001600160a01b0383169063a9059cbb906044016020604051808303816000875af1158015610112573d6000803e3d6000fd5b505050506040513d601f19601f82011682018060405250810190610136919061078e565b505050505050505050565b326001600160a01b037f000000000000000000000000000000000000000000000000000000000000000016146101a25760405162461bcd60e51b81526020600482015260026024820152614e4f60f01b604482015260640160405180910390fd5b8051156101bf5780516001036101c2576101bf8160200151610288565b50565b80516002036101d8576101bf8160200151610324565b80516003036101bf576101bf81602001516103d0565b600080806101fe8486018661071f565b92509250925061020d83610141565b60405163a9059cbb60e01b8152336004820152602481018290526001600160a01b0383169063a9059cbb906044016020604051808303816000875af115801561025a573d6000803e3d6000fd5b505050506040513d601f19601f8201168201806040525081019061027e919061078e565b5050505050505050565b6000806000838060200190518101906102a191906107b0565b60405163a9059cbb60e01b81526001600160a01b0380841660048301526024820183905293965091945092509084169063a9059cbb906044016020604051808303816000875af11580156102f9573d6000803e3d6000fd5b505050506040513d601f19601f8201168201806040525081019061031d919061078e565b5050505050565b6000806000806000858060200190518101906103409190610817565b94509450945094509450846001600160a01b031663022c0d9f836103645785610367565b60005b84610373576000610375565b865b86856040518563ffffffff1660e01b815260040161039694939291906108fd565b600060405180830381600087803b1580156103b057600080fd5b505af11580156103c4573d6000803e3d6000fd5b50505050505050505050565b6000806000806000858060200190518101906103ec9190610817565b93985091965094509250905064011000000060008361041f5773fefffffffffffffffffffffffffffffef0000000610422565b60005b905061042e818361094a565b91506001600160a01b03871663128acb08868661044a8a610971565b86886040518663ffffffff1660e01b815260040161046c95949392919061098d565b600060405180830381600087803b15801561048657600080fd5b505af115801561049a573d6000803e3d6000fd5b505050505050505050505050565b6001600160a01b03811681146101bf57600080fd5b60008083601f8401126104cf57600080fd5b50813567ffffffffffffffff8111156104e757600080fd5b6020830191508360208285010111156104ff57600080fd5b9250929050565b60008060008060006080868803121561051e57600080fd5b8535610529816104a8565b94506020860135935060408601359250606086013567ffffffffffffffff81111561055357600080fd5b61055f888289016104bd565b969995985093965092949392505050565b634e487b7160e01b600052604160045260246000fd5b604051601f8201601f1916810167ffffffffffffffff811182821017156105af576105af610570565b604052919050565b600067ffffffffffffffff8211156105d1576105d1610570565b50601f01601f191660200190565b6000604082840312156105f157600080fd5b6040516040810167ffffffffffffffff828210818311171561061557610615610570565b816040528293508435835260209150818501358181111561063557600080fd5b85019050601f8101861361064857600080fd5b803561065b610656826105b7565b610586565b818152878483850101111561066f57600080fd5b818484018583013760008483830101528084860152505050505092915050565b6000602082840312156106a157600080fd5b813567ffffffffffffffff8111156106b857600080fd5b6106c4848285016105df565b949350505050565b600080600080606085870312156106e257600080fd5b8435935060208501359250604085013567ffffffffffffffff81111561070757600080fd5b610713878288016104bd565b95989497509550505050565b60008060006060848603121561073457600080fd5b833567ffffffffffffffff81111561074b57600080fd5b610757868287016105df565b9350506020840135610768816104a8565b929592945050506040919091013590565b8051801515811461078957600080fd5b919050565b6000602082840312156107a057600080fd5b6107a982610779565b9392505050565b6000806000606084860312156107c557600080fd5b83516107d0816104a8565b60208501519093506107e1816104a8565b80925050604084015190509250925092565b60005b8381101561080e5781810151838201526020016107f6565b50506000910152565b600080600080600060a0868803121561082f57600080fd5b855161083a816104a8565b602087015160408801519196509450610852816104a8565b925061086060608701610779565b9150608086015167ffffffffffffffff81111561087c57600080fd5b8601601f8101881361088d57600080fd5b805161089b610656826105b7565b8181528960208385010111156108b057600080fd5b6108c18260208301602086016107f3565b8093505050509295509295909350565b600081518084526108e98160208601602086016107f3565b601f01601f19169290920160200192915050565b84815283602082015260018060a01b038316604082015260806060820152600061092a60808301846108d1565b9695505050505050565b634e487b7160e01b600052601160045260246000fd5b6001600160a01b0381811683821601908082111561096a5761096a610934565b5092915050565b6000600160ff1b820161098657610986610934565b5060000390565b6001600160a01b0386811682528515156020830152604082018590528316606082015260a0608082018190526000906109c8908301846108d1565b97965050505050505056fea2646970667358221220be6bdef5ca1414fef2e3bfb22c112c57d8ef2f1131f8c410dc819f45b17c9ac164736f6c63430008110033",
    "linkReferences": {}
  },
  "methodIdentifiers": {
    "execute((uint256,bytes))": "8b782113",
    "uniswapV2Call(address,uint256,uint256,bytes)": "10d1e85c",
    "uniswapV3SwapCallback(int256,int256,bytes)": "fa461e33"
  },
  "id": 22
}